{"abi":[{"type":"constructor","inputs":[],"stateMutability":"nonpayable"},{"type":"function","name":"addOfficer","inputs":[{"name":"_officer","type":"address","internalType":"address"},{"name":"_name","type":"string","internalType":"string"},{"name":"_district","type":"string","internalType":"string"},{"name":"_station","type":"string","internalType":"string"}],"outputs":[],"stateMutability":"nonpayable"},{"type":"function","name":"admin","inputs":[],"outputs":[{"name":"","type":"address","internalType":"address"}],"stateMutability":"view"},{"type":"function","name":"firs","inputs":[{"name":"","type":"uint256","internalType":"uint256"}],"outputs":[{"name":"officer","type":"address","internalType":"address"},{"name":"caseTitle","type":"string","internalType":"string"},{"name":"description","type":"string","internalType":"string"},{"name":"accusedName","type":"string","internalType":"string"},{"name":"location","type":"string","internalType":"string"},{"name":"date","type":"string","internalType":"string"}],"stateMutability":"view"},{"type":"function","name":"getAllFIRs","inputs":[],"outputs":[{"name":"","type":"tuple[]","internalType":"struct FIRChain.FIR[]","components":[{"name":"officer","type":"address","internalType":"address"},{"name":"caseTitle","type":"string","internalType":"string"},{"name":"description","type":"string","internalType":"string"},{"name":"accusedName","type":"string","internalType":"string"},{"name":"location","type":"string","internalType":"string"},{"name":"date","type":"string","internalType":"string"}]}],"stateMutability":"view"},{"type":"function","name":"getAllOfficers","inputs":[],"outputs":[{"name":"","type":"tuple[]","internalType":"struct FIRChain.Officer[]","components":[{"name":"officerAddress","type":"address","internalType":"address"},{"name":"name","type":"string","internalType":"string"},{"name":"district","type":"string","internalType":"string"},{"name":"station","type":"string","internalType":"string"}]}],"stateMutability":"view"},{"type":"function","name":"isAdmin","inputs":[],"outputs":[{"name":"","type":"bool","internalType":"bool"}],"stateMutability":"view"},{"type":"function","name":"isOfficer","inputs":[{"name":"","type":"address","internalType":"address"}],"outputs":[{"name":"","type":"bool","internalType":"bool"}],"stateMutability":"view"},{"type":"function","name":"officers","inputs":[{"name":"","type":"uint256","internalType":"uint256"}],"outputs":[{"name":"officerAddress","type":"address","internalType":"address"},{"name":"name","type":"string","internalType":"string"},{"name":"district","type":"string","internalType":"string"},{"name":"station","type":"string","internalType":"string"}],"stateMutability":"view"},{"type":"function","name":"submitFIR","inputs":[{"name":"caseTitle","type":"string","internalType":"string"},{"name":"description","type":"string","internalType":"string"},{"name":"accusedName","type":"string","internalType":"string"},{"name":"location","type":"string","internalType":"string"},{"name":"date","type":"string","internalType":"string"}],"outputs":[],"stateMutability":"nonpayable"}],"bytecode":{"object":"0x6080604052348015600e575f5ffd5b50335f5f6101000a81548173ffffffffffffffffffffffffffffffffffffffff021916908373ffffffffffffffffffffffffffffffffffffffff160217905550611e238061005b5f395ff3fe608060405234801561000f575f5ffd5b5060043610610091575f3560e01c8063a4de172d11610064578063a4de172d14610132578063b363887014610167578063b6db75a014610185578063d41d99c3146101a3578063f851a440146101bf57610091565b80636816442d146100955780636a8d28b0146100c55780636b291d9f146100e15780639f3feb3814610114575b5f5ffd5b6100af60048036038101906100aa91906111b7565b6101dd565b6040516100bc91906111fc565b60405180910390f35b6100df60048036038101906100da9190611351565b6101fa565b005b6100fb60048036038101906100f6919061143c565b610454565b60405161010b94939291906114d6565b60405180910390f35b61011c610640565b60405161012991906116e2565b60405180910390f35b61014c6004803603810190610147919061143c565b6109c0565b60405161015e96959493929190611702565b60405180910390f35b61016f610cc4565b60405161017c91906118ad565b60405180910390f35b61018d610f24565b60405161019a91906111fc565b60405180910390f35b6101bd60048036038101906101b891906118cd565b610f79565b005b6101c7611128565b6040516101d491906119d0565b60405180910390f35b6003602052805f5260405f205f915054906101000a900460ff1681565b5f5f9054906101000a900473ffffffffffffffffffffffffffffffffffffffff1673ffffffffffffffffffffffffffffffffffffffff163373ffffffffffffffffffffffffffffffffffffffff1614610288576040517f08c379a000000000000000000000000000000000000000000000000000000000815260040161027f90611a33565b60405180910390fd5b60035f8573ffffffffffffffffffffffffffffffffffffffff1673ffffffffffffffffffffffffffffffffffffffff1681526020019081526020015f205f9054906101000a900460ff1615610312576040517f08c379a000000000000000000000000000000000000000000000000000000000815260040161030990611a9b565b60405180910390fd5b600160035f8673ffffffffffffffffffffffffffffffffffffffff1673ffffffffffffffffffffffffffffffffffffffff1681526020019081526020015f205f6101000a81548160ff021916908315150217905550600160405180608001604052808673ffffffffffffffffffffffffffffffffffffffff16815260200185815260200184815260200183815250908060018154018082558091505060019003905f5260205f2090600402015f909190919091505f820151815f015f6101000a81548173ffffffffffffffffffffffffffffffffffffffff021916908373ffffffffffffffffffffffffffffffffffffffff160217905550602082015181600101908161041f9190611cb6565b5060408201518160020190816104359190611cb6565b50606082015181600301908161044b9190611cb6565b50505050505050565b60018181548110610463575f80fd5b905f5260205f2090600402015f91509050805f015f9054906101000a900473ffffffffffffffffffffffffffffffffffffffff16908060010180546104a790611ae6565b80601f01602080910402602001604051908101604052809291908181526020018280546104d390611ae6565b801561051e5780601f106104f55761010080835404028352916020019161051e565b820191905f5260205f20905b81548152906001019060200180831161050157829003601f168201915b50505050509080600201805461053390611ae6565b80601f016020809104026020016040519081016040528092919081815260200182805461055f90611ae6565b80156105aa5780601f10610581576101008083540402835291602001916105aa565b820191905f5260205f20905b81548152906001019060200180831161058d57829003601f168201915b5050505050908060030180546105bf90611ae6565b80601f01602080910402602001604051908101604052809291908181526020018280546105eb90611ae6565b80156106365780601f1061060d57610100808354040283529160200191610636565b820191905f5260205f20905b81548152906001019060200180831161061957829003601f168201915b5050505050905084565b60606002805480602002602001604051908101604052809291908181526020015f905b828210156109b7578382905f5260205f2090600602016040518060c00160405290815f82015f9054906101000a900473ffffffffffffffffffffffffffffffffffffffff1673ffffffffffffffffffffffffffffffffffffffff1673ffffffffffffffffffffffffffffffffffffffff1681526020016001820180546106e890611ae6565b80601f016020809104026020016040519081016040528092919081815260200182805461071490611ae6565b801561075f5780601f106107365761010080835404028352916020019161075f565b820191905f5260205f20905b81548152906001019060200180831161074257829003601f168201915b5050505050815260200160028201805461077890611ae6565b80601f01602080910402602001604051908101604052809291908181526020018280546107a490611ae6565b80156107ef5780601f106107c6576101008083540402835291602001916107ef565b820191905f5260205f20905b8154815290600101906020018083116107d257829003601f168201915b5050505050815260200160038201805461080890611ae6565b80601f016020809104026020016040519081016040528092919081815260200182805461083490611ae6565b801561087f5780601f106108565761010080835404028352916020019161087f565b820191905f5260205f20905b81548152906001019060200180831161086257829003601f168201915b5050505050815260200160048201805461089890611ae6565b80601f01602080910402602001604051908101604052809291908181526020018280546108c490611ae6565b801561090f5780601f106108e65761010080835404028352916020019161090f565b820191905f5260205f20905b8154815290600101906020018083116108f257829003601f168201915b5050505050815260200160058201805461092890611ae6565b80601f016020809104026020016040519081016040528092919081815260200182805461095490611ae6565b801561099f5780601f106109765761010080835404028352916020019161099f565b820191905f5260205f20905b81548152906001019060200180831161098257829003601f168201915b50505050508152505081526020019060010190610663565b50505050905090565b600281815481106109cf575f80fd5b905f5260205f2090600602015f91509050805f015f9054906101000a900473ffffffffffffffffffffffffffffffffffffffff1690806001018054610a1390611ae6565b80601f0160208091040260200160405190810160405280929190818152602001828054610a3f90611ae6565b8015610a8a5780601f10610a6157610100808354040283529160200191610a8a565b820191905f5260205f20905b815481529060010190602001808311610a6d57829003601f168201915b505050505090806002018054610a9f90611ae6565b80601f0160208091040260200160405190810160405280929190818152602001828054610acb90611ae6565b8015610b165780601f10610aed57610100808354040283529160200191610b16565b820191905f5260205f20905b815481529060010190602001808311610af957829003601f168201915b505050505090806003018054610b2b90611ae6565b80601f0160208091040260200160405190810160405280929190818152602001828054610b5790611ae6565b8015610ba25780601f10610b7957610100808354040283529160200191610ba2565b820191905f5260205f20905b815481529060010190602001808311610b8557829003601f168201915b505050505090806004018054610bb790611ae6565b80601f0160208091040260200160405190810160405280929190818152602001828054610be390611ae6565b8015610c2e5780601f10610c0557610100808354040283529160200191610c2e565b820191905f5260205f20905b815481529060010190602001808311610c1157829003601f168201915b505050505090806005018054610c4390611ae6565b80601f0160208091040260200160405190810160405280929190818152602001828054610c6f90611ae6565b8015610cba5780601f10610c9157610100808354040283529160200191610cba565b820191905f5260205f20905b815481529060010190602001808311610c9d57829003601f168201915b5050505050905086565b60606001805480602002602001604051908101604052809291908181526020015f905b82821015610f1b578382905f5260205f2090600402016040518060800160405290815f82015f9054906101000a900473ffffffffffffffffffffffffffffffffffffffff1673ffffffffffffffffffffffffffffffffffffffff1673ffffffffffffffffffffffffffffffffffffffff168152602001600182018054610d6c90611ae6565b80601f0160208091040260200160405190810160405280929190818152602001828054610d9890611ae6565b8015610de35780601f10610dba57610100808354040283529160200191610de3565b820191905f5260205f20905b815481529060010190602001808311610dc657829003601f168201915b50505050508152602001600282018054610dfc90611ae6565b80601f0160208091040260200160405190810160405280929190818152602001828054610e2890611ae6565b8015610e735780601f10610e4a57610100808354040283529160200191610e73565b820191905f5260205f20905b815481529060010190602001808311610e5657829003601f168201915b50505050508152602001600382018054610e8c90611ae6565b80601f0160208091040260200160405190810160405280929190818152602001828054610eb890611ae6565b8015610f035780601f10610eda57610100808354040283529160200191610f03565b820191905f5260205f20905b815481529060010190602001808311610ee657829003601f168201915b50505050508152505081526020019060010190610ce7565b50505050905090565b5f5f5f9054906101000a900473ffffffffffffffffffffffffffffffffffffffff1673ffffffffffffffffffffffffffffffffffffffff163373ffffffffffffffffffffffffffffffffffffffff1614905090565b60035f3373ffffffffffffffffffffffffffffffffffffffff1673ffffffffffffffffffffffffffffffffffffffff1681526020019081526020015f205f9054906101000a900460ff16611002576040517f08c379a0000000000000000000000000000000000000000000000000000000008152600401610ff990611dcf565b60405180910390fd5b60026040518060c001604052803373ffffffffffffffffffffffffffffffffffffffff16815260200187815260200186815260200185815260200184815260200183815250908060018154018082558091505060019003905f5260205f2090600602015f909190919091505f820151815f015f6101000a81548173ffffffffffffffffffffffffffffffffffffffff021916908373ffffffffffffffffffffffffffffffffffffffff16021790555060208201518160010190816110c69190611cb6565b5060408201518160020190816110dc9190611cb6565b5060608201518160030190816110f29190611cb6565b5060808201518160040190816111089190611cb6565b5060a082015181600501908161111e9190611cb6565b5050505050505050565b5f5f9054906101000a900473ffffffffffffffffffffffffffffffffffffffff1681565b5f604051905090565b5f5ffd5b5f5ffd5b5f73ffffffffffffffffffffffffffffffffffffffff82169050919050565b5f6111868261115d565b9050919050565b6111968161117c565b81146111a0575f5ffd5b50565b5f813590506111b18161118d565b92915050565b5f602082840312156111cc576111cb611155565b5b5f6111d9848285016111a3565b91505092915050565b5f8115159050919050565b6111f6816111e2565b82525050565b5f60208201905061120f5f8301846111ed565b92915050565b5f5ffd5b5f5ffd5b5f601f19601f8301169050919050565b7f4e487b71000000000000000000000000000000000000000000000000000000005f52604160045260245ffd5b6112638261121d565b810181811067ffffffffffffffff821117156112825761128161122d565b5b80604052505050565b5f61129461114c565b90506112a0828261125a565b919050565b5f67ffffffffffffffff8211156112bf576112be61122d565b5b6112c88261121d565b9050602081019050919050565b828183375f83830152505050565b5f6112f56112f0846112a5565b61128b565b90508281526020810184848401111561131157611310611219565b5b61131c8482856112d5565b509392505050565b5f82601f83011261133857611337611215565b5b81356113488482602086016112e3565b91505092915050565b5f5f5f5f6080858703121561136957611368611155565b5b5f611376878288016111a3565b945050602085013567ffffffffffffffff81111561139757611396611159565b5b6113a387828801611324565b935050604085013567ffffffffffffffff8111156113c4576113c3611159565b5b6113d087828801611324565b925050606085013567ffffffffffffffff8111156113f1576113f0611159565b5b6113fd87828801611324565b91505092959194509250565b5f819050919050565b61141b81611409565b8114611425575f5ffd5b50565b5f8135905061143681611412565b92915050565b5f6020828403121561145157611450611155565b5b5f61145e84828501611428565b91505092915050565b6114708161117c565b82525050565b5f81519050919050565b5f82825260208201905092915050565b8281835e5f83830152505050565b5f6114a882611476565b6114b28185611480565b93506114c2818560208601611490565b6114cb8161121d565b840191505092915050565b5f6080820190506114e95f830187611467565b81810360208301526114fb818661149e565b9050818103604083015261150f818561149e565b90508181036060830152611523818461149e565b905095945050505050565b5f81519050919050565b5f82825260208201905092915050565b5f819050602082019050919050565b6115608161117c565b82525050565b5f82825260208201905092915050565b5f61158082611476565b61158a8185611566565b935061159a818560208601611490565b6115a38161121d565b840191505092915050565b5f60c083015f8301516115c35f860182611557565b50602083015184820360208601526115db8282611576565b915050604083015184820360408601526115f58282611576565b9150506060830151848203606086015261160f8282611576565b915050608083015184820360808601526116298282611576565b91505060a083015184820360a08601526116438282611576565b9150508091505092915050565b5f61165b83836115ae565b905092915050565b5f602082019050919050565b5f6116798261152e565b6116838185611538565b93508360208202850161169585611548565b805f5b858110156116d057848403895281516116b18582611650565b94506116bc83611663565b925060208a01995050600181019050611698565b50829750879550505050505092915050565b5f6020820190508181035f8301526116fa818461166f565b905092915050565b5f60c0820190506117155f830189611467565b8181036020830152611727818861149e565b9050818103604083015261173b818761149e565b9050818103606083015261174f818661149e565b90508181036080830152611763818561149e565b905081810360a0830152611777818461149e565b9050979650505050505050565b5f81519050919050565b5f82825260208201905092915050565b5f819050602082019050919050565b5f608083015f8301516117c25f860182611557565b50602083015184820360208601526117da8282611576565b915050604083015184820360408601526117f48282611576565b9150506060830151848203606086015261180e8282611576565b9150508091505092915050565b5f61182683836117ad565b905092915050565b5f602082019050919050565b5f61184482611784565b61184e818561178e565b9350836020820285016118608561179e565b805f5b8581101561189b578484038952815161187c858261181b565b94506118878361182e565b925060208a01995050600181019050611863565b50829750879550505050505092915050565b5f6020820190508181035f8301526118c5818461183a565b905092915050565b5f5f5f5f5f60a086880312156118e6576118e5611155565b5b5f86013567ffffffffffffffff81111561190357611902611159565b5b61190f88828901611324565b955050602086013567ffffffffffffffff8111156119305761192f611159565b5b61193c88828901611324565b945050604086013567ffffffffffffffff81111561195d5761195c611159565b5b61196988828901611324565b935050606086013567ffffffffffffffff81111561198a57611989611159565b5b61199688828901611324565b925050608086013567ffffffffffffffff8111156119b7576119b6611159565b5b6119c388828901611324565b9150509295509295909350565b5f6020820190506119e35f830184611467565b92915050565b7f4e6f742061646d696e00000000000000000000000000000000000000000000005f82015250565b5f611a1d600983611480565b9150611a28826119e9565b602082019050919050565b5f6020820190508181035f830152611a4a81611a11565b9050919050565b7f416c726561647920616e206f66666963657200000000000000000000000000005f82015250565b5f611a85601283611480565b9150611a9082611a51565b602082019050919050565b5f6020820190508181035f830152611ab281611a79565b9050919050565b7f4e487b71000000000000000000000000000000000000000000000000000000005f52602260045260245ffd5b5f6002820490506001821680611afd57607f821691505b602082108103611b1057611b0f611ab9565b5b50919050565b5f819050815f5260205f209050919050565b5f6020601f8301049050919050565b5f82821b905092915050565b5f60088302611b727fffffffffffffffffffffffffffffffffffffffffffffffffffffffffffffffff82611b37565b611b7c8683611b37565b95508019841693508086168417925050509392505050565b5f819050919050565b5f611bb7611bb2611bad84611409565b611b94565b611409565b9050919050565b5f819050919050565b611bd083611b9d565b611be4611bdc82611bbe565b848454611b43565b825550505050565b5f5f905090565b611bfb611bec565b611c06818484611bc7565b505050565b5b81811015611c2957611c1e5f82611bf3565b600181019050611c0c565b5050565b601f821115611c6e57611c3f81611b16565b611c4884611b28565b81016020851015611c57578190505b611c6b611c6385611b28565b830182611c0b565b50505b505050565b5f82821c905092915050565b5f611c8e5f1984600802611c73565b1980831691505092915050565b5f611ca68383611c7f565b9150826002028217905092915050565b611cbf82611476565b67ffffffffffffffff811115611cd857611cd761122d565b5b611ce28254611ae6565b611ced828285611c2d565b5f60209050601f831160018114611d1e575f8415611d0c578287015190505b611d168582611c9b565b865550611d7d565b601f198416611d2c86611b16565b5f5b82811015611d5357848901518255600182019150602085019450602081019050611d2e565b86831015611d705784890151611d6c601f891682611c7f565b8355505b6001600288020188555050505b505050505050565b7f4e6f74206f6666696365720000000000000000000000000000000000000000005f82015250565b5f611db9600b83611480565b9150611dc482611d85565b602082019050919050565b5f6020820190508181035f830152611de681611dad565b905091905056fea2646970667358221220b79e159a2488c76d9b49a2adbf71e002b3a8aa99bef5aef00163897b817b444564736f6c634300081e0033","linkReferences":{}},"methodIdentifiers":{"addOfficer(address,string,string,string)":"6a8d28b0","admin()":"f851a440","firs(uint256)":"a4de172d","getAllFIRs()":"9f3feb38","getAllOfficers()":"b3638870","isAdmin()":"b6db75a0","isOfficer(address)":"6816442d","officers(uint256)":"6b291d9f","submitFIR(string,string,string,string,string)":"d41d99c3"},"id":0}